:100000000C9462000C948A000C948A000C948A0070
:100010000C948A000C948A000C948A000C949A1018
:100020000C948A000C948A000C948A000C948A0028
:100030000C948A000C948A000C948A000C948A0018
:100040000C94F80F0C948A000C9468100C944210D5
:100050000C948A000C948A000C948A000C948A00F8
:100060000C948A000C948A000000000024002700F1
:100070002A000000000023002600290000000008DC
:10008000000201000003040700000000000000005F
:10009000010204081020408001020408102001021F
:1000A0000408102000000000250028002B00040494
:1000B0000404040404040202020202020303030310
:1000C0000303191111241FBECFEFD8E0DEBFCDBF4F
:1000D00013E0A0E0B1E0ECE3F3E302C005900D9281
:1000E000A030B107D9F72AE0A0E0B3E001C01D922B
:1000F000AE35B207E1F710E0C2E6D0E004C02197C8
:10010000FE010E948316C136D107C9F70E949011E3
:100110000C949C190C940000833081F028F48130F9
:1001200099F08230A9F008958730A9F08830C9F09D
:100130008430B1F4809180008F7D03C08091800075
:100140008F7780938000089584B58F7784BD08955C
:1001500084B58F7DFBCF8091B0008F778093B00006
:1001600008958091B0008F7DF9CFCF93DF93282F32
:1001700030E0F901E458FF4F8491F901E057FF4F57
:10018000D491F901E255FF4FC491CC23A1F0811124
:100190000E948C00EC2FF0E0EE0FFF1FEE58FF4F97
:1001A000A591B491EC91ED2381E090E009F480E019
:1001B000DF91CF91089580E090E0FACF1F93CF9325
:1001C000DF93282F30E0F901E458FF4F8491F901C3
:1001D000E057FF4FD491F901E255FF4FC491CC2372
:1001E000A9F0162F81110E948C00EC2FF0E0EE0F89
:1001F000FF1FEC55FF4FA591B4918FB7F894EC9188
:10020000111108C0D095DE23DC938FBFDF91CF9111
:100210001F910895DE2BF8CFCF93DF9390E0FC0180
:10022000E057FF4F249182559F4FFC018491882312
:10023000D1F090E0880F991FFC01E859FF4FA5917C
:10024000B491FC01EC55FF4FC591D49161110EC0E2
:100250009FB7F8948C91E22FE0958E238C932881A0
:10026000E223E8839FBFDF91CF9108958FB7F89481
:10027000EC91E22BEC938FBFF6CFCF93EFEAF8E04F
:10028000AFEF90E0208187FF05C027FF47C0AF3F59
:1002900041F406C0821709F441C0AF3F11F427FDB5
:1002A000A92F9F5F3996943169F787FD3AC0AF3F18
:1002B00009F437C0C82F89E0A802D0011124A15544
:1002C000B74FCC932091AE0811962C9311978C2F99
:1002D0000C2E000C990BFC01E255FF4FE491F0E06D
:1002E000EE0FFF1FEC55FF4F4591549113965C9311
:1002F0004E931297FC01E057FF4FE4911496EC9354
:10030000149715966C9360E0211161E08C2F0E9488
:10031000DE0061E08C2FCF910C940C01658387FD8A
:10032000BCCFCF9108958E3008F08E5087708064D6
:1003300080937C0080917A00806480937A00809121
:100340007A0086FDFCCF8091780090917900089525
:100350004F925F926F927F928F929F92AF92BF92D5
:10036000CF92DF92EF92FF920F931F93CF93DF9381
:10037000FC01E05BFF4FC080D180E280F3808C0104
:10038000D0E0C0E0AA24A394B12CC5010C2E02C079
:10039000880F991F0A94E2F78C219D21892B79F00F
:1003A000F80180819181A281B381492E5A2E6B2E52
:1003B0007724823009F47EC0D8F4813011F121967F
:1003C0000C5F1F4FC531D10501F790E080E0DF9150
:1003D000CF911F910F91FF90EF90DF90CF90BF9042
:1003E000AF909F908F907F906F905F904F90089507
:1003F000833009F45CC0843011F78C2F0E94B50063
:10040000DECF9C2E61E08C2F0E940C0160E0442026
:1004100009F44EC0FFEF61E04F1609F449C0FE0138
:10042000E458FF4FE491E33039F158F4E130D1F072
:10043000E230E9F060E047FC61E0892D0E94DE00D7
:10044000BECFE73021F1E83051F1E43099F78091E7
:100450008000806280938000512C50928B004092EB
:100460008A00ADCF84B5806884BD47BCA8CF84B571
:10047000806284BD48BCA3CF809180008068809357
:100480008000512C509289004092880098CF809132
:10049000B00080688093B0004092B30090CF80910C
:1004A000B00080628093B0004092B40088CF642D89
:1004B0008C2FC4CF8C2F0E94930181CF3FB7F8942B
:1004C0008091AA089091AB08A091AC08B091AD08BA
:1004D00026B5A89B05C02F3F19F00196A11DB11D9F
:1004E0003FBFBA2FA92F982F8827BC01CD01620FDB
:1004F000711D811D911D42E0660F771F881F991F96
:100500004A95D1F708958F929F92AF92BF92CF9262
:10051000DF92EF92FF924B015C010E945E026B0141
:100520007C010E945E026C197D098E099F09683E5C
:10053000734081059105A8F321E0821A9108A10872
:10054000B10888EEC80E83E0D81EE11CF11C8114AE
:100550009104A104B10429F7FF90EF90DF90CF90B0
:10056000BF90AF909F908F900895CF93DF93EC0151
:10057000AB89BC8922E137E011963C932E93EB01C5
:10058000E881E150EE30C0F4F0E0E753FD4F0C9409
:100590008316D702E102E402E702EA02ED02F0026A
:1005A000F302F602F902FC02FF02020305032CE14A
:1005B0003DE011963C932E93ED91FC91DF91CF910C
:1005C000099422E03FE0F5CF2AE73FE0F2CF2AE8A6
:1005D0003CE0EFCF2EE836E0ECCF2BE03EE0E9CF79
:1005E00029EC3CE0E6CF27EE36E0E3CF20E93EE021
:1005F000E0CF2FE736E0DDCF22E436E0DACF2FE59B
:1006000036E0D7CF2EEE3CE0D4CF25E53CE0D1CF8D
:10061000AF92BF92CF92DF92EF92FF920F931F9310
:10062000CF93DF936C017B018B01040F151FEB014E
:100630005E01AE18BF08C017D10759F06991D60105
:10064000ED91FC910190F081E02DC6010995892B77
:1006500079F7C501DF91CF911F910F91FF90EF9036
:10066000DF90CF90BF90AF900895FC01538D448DE3
:10067000252F30E0842F90E0821B930B541710F04D
:10068000CF96089501970895FC01918D828D98175A
:1006900061F0A28DAE0FBF2FB11D5D968C91928D32
:1006A0009F5F9F73928F90E008958FEF9FEF089563
:1006B000FC01918D828D981731F0828DE80FF11D2C
:1006C000858D90E008958FEF9FEF0895FC01918D47
:1006D000228D892F90E0805C9F4F821B91098F7340
:1006E0009927089583E899E00E94660321E0892B09
:1006F00009F420E0822F089580E090E0892B29F012
:100700000E94720381110C9400000895FC01A48DD5
:10071000A80FB92FB11DA35ABF4F2C91848D90E023
:1007200001968F739927848FA689B7892C93A08906
:10073000B1898C91837080648C93938D848D981390
:1007400006C00288F389E02D80818F7D8083089523
:10075000EF92FF920F931F93CF93DF93EC0181E011
:10076000888F9B8D8C8D98131AC0E889F9898081B8
:1007700085FF15C09FB7F894EE89FF896083E889EB
:10078000F98980818370806480839FBF81E090E0DD
:10079000DF91CF911F910F91FF90EF900895F62E6A
:1007A0000B8D10E00F5F1F4F0F731127E02E8C8D04
:1007B0008E110CC00FB607FCFACFE889F989808149
:1007C00085FFF5CFCE010E948603F1CFEB8DEC0FB4
:1007D000FD2FF11DE35AFF4FF0829FB7F8940B8F66
:1007E000EA89FB8980818062CFCFCF93DF93EC01D0
:1007F000888D8823B9F0AA89BB89E889F9898C9109
:1008000085FD03C0808186FD0DC00FB607FCF7CFC4
:100810008C9185FFF2CF808185FFEDCFCE010E94C4
:100820008603E9CFDF91CF910895CF93DF93EC0159
:10083000DA01A90115963C911597832F8F708330AB
:1008400009F064C0653A7A40C4F517969C911797F1
:10085000892F82958F70883081F518968C91189722
:10086000282F2F772330D1F1253009F442C02230D0
:1008700021F5307F336015963C9315972AE030E0E0
:1008800011963C932E939F70906817969C931797A0
:100890008078826018968C93189781E090E01D967E
:1008A0009C938E931C9784E392E11F969C938E9366
:1008B0001E9751961C921E92509715969C911597D3
:1008C000892F82958F708F5F87708295807F9F7848
:1008D000892B15968C93DF91CF9108951C968D915D
:1008E0009C911D979E8B8D8B89EC9DE0998F888FB5
:1008F000E4CF1C968D919C911D979E8B8D8B1E969F
:100900008C911E978F8B8AE79DE0F0CFE88DF98D53
:10091000309709F3BD01CE01DF91CF910994CF92B9
:10092000DF92EF92FF92643AE9E07E0734F0FF90A5
:10093000EF90DF90CF900C94150477FD12C0260F36
:10094000371FCB01B0E0A0E0821793077CF0603244
:10095000714039F4FA018081918190931B03809357
:100960001A03FF90EF90DF90CF9008958430F5E068
:100970009F0709F45BC10CF075C08031F1E09F075F
:1009800009F420C194F58031910509F4FFC08CF47D
:100990008130910509F4ECC08730910509F4EFC06E
:1009A000009789F4FA01EA0FFB1FE081E093170337
:1009B0000AC08115F1E09F0709F4F6C03CF48231CA
:1009C000910509F4EAC0E1E0F0E00FC18130980739
:1009D00009F4F1C08330E1E09E07A9F7FA01EA0FBC
:1009E000FB1FE081E0932103EECF8034F1E09F070D
:1009F00009F407C1ACF48033F1E09F0709F4E9C0C2
:100A00008433E1E09E0709F4F5C08032F1E09F07EE
:100A1000D1F6FA01EA0FFB1FE081E0932203D3CF66
:100A20008115E3E09E0709F4F3C05CF48115E2E070
:100A30009E0749F6FA01EA0FFB1FE081E0932503C8
:100A4000C2CF8115F5E09F0709F4E9C08230E5E0E7
:100A50009E0709F0B8CFFA01EA0FFB1FE081E0938F
:100A60002803B1CF8832F9E09F0709F4E6C00CF003
:100A70003FC08830F9E09F07F9F0A4F48115F9E050
:100A80009F07D1F08430E9E09E07B1F08830F5E0AF
:100A90009F0709F098CFFA01EA0FFB1FE081E0936E
:100AA0002A0391CF8031E9E09E0731F044F48C3085
:100AB000E9E09E0709F087CFE4E0F0E096C08831D6
:100AC000F9E09F07C9F38032E9E09E0709F07BCF88
:100AD000FA01EA0FFB1FC080D180E280F380C09250
:100AE0003103D0923203E0923303F0923403E4CF27
:100AF0008038F9E09F0709F4B0C0ECF48033F9E0E6
:100B00009F07D1F28433E9E09E07B1F28C32F9E01D
:100B10009F0709F058CFFA01EA0FFB1FC080D18070
:100B2000E280F380C0923503D0923603E09237031F
:100B3000F0923803C1CF8039E9E09E0709F4BCCFB9
:100B400064F48138E9E09E0709F03DCFFA01EA0F2D
:100B5000FB1FE081E0932C0336CF803AF9E09F073A
:100B600009F4AACF843AE9E09E0709F4A5CF2BCF78
:100B7000FA01EA0FFB1FE081E093180324CFFA018A
:100B8000EA0FFB1FE081E09319031DCFFA01EA0F82
:100B9000FB1FE081E0931D0316CFFA01EA0FFB1F54
:100BA000E081E0931E030FCFFA01EA0FFB1FE08103
:100BB000E0931F0308CFFA01EA0FFB1FE081E093E7
:100BC000200301CFFA01EA0FFB1FE081E0931C0331
:100BD000FACEFA01EA0FFB1F0190F081E02DF093AD
:100BE0001B03E0931A03E2E0F0E08E0F9F1FAE0FAD
:100BF000BF1FAACEFA01EA0FFB1FE081E093230397
:100C0000E2CEFA01EA0FFB1FE081E0932403DBCE82
:100C1000FA01EA0FFB1FE081E0932603D4CEFA012C
:100C2000EA0FFB1FE081E0932703CDCEFA01EA0F24
:100C3000FB1FE081E0932903C6CEFA01EA0FFB1FF8
:100C4000C080D180E280F380C0922D03D0922E0329
:100C5000E0922F03F09230032FCFFA01EA0FFB1F2F
:100C6000E081E0932B03AFCEDC011696ED91FC9171
:100C7000F7703A96E80FF91F808191810196918370
:100C8000808308950F931F93CF93DF938C01EB0123
:100C90008A819B810A96860F971F0E94A801CE0128
:100CA0000E943406D8015396ED91FC9182EF97E0B3
:100CB00091838083DF91CF911F910F9108950F93BE
:100CC0001F93CF93DF938C01EB01CB010A960E9417
:100CD000A801CE010E943406CE010E943406CE0146
:100CE0000E943406D8015396ED91FC9182EF97E073
:100CF00091838083DF91CF911F910F910895CF93BE
:100D0000DF93EC01CB010E943406EB89FC8982EF72
:100D100097E091838083DF91CF910895CF92DF9206
:100D2000EF92FF920F931F93CF93DF937C01EB0120
:100D30000E811F81177001151105E1F020911D032F
:100D40008A819B8128171906A9F4CC80DD80CB010C
:100D50000E94340682E0C81685E0D80671F58A85BF
:100D60008058823038F48C859D852B85213099F010
:100D70002230E1F0D7015396ED91FC9182EF97E09C
:100D800091838083DF91CF911F910F91FF90EF901E
:100D9000DF90CF900895909301018093000189E640
:100DA0009DE09093020380930103E4CF90930101AF
:100DB0008093000186EE96E0F4CFAE01465F5F4F70
:100DC0009801B601C7010E948F04D4CF0895EF9215
:100DD000FF920F931F93CF93DF937C01EB010E8162
:100DE0001F8117708A819B8101969B838A83CB0127
:100DF0000E943406AE01465F5F4F6C817D81980191
:100E0000C7010E948F04D7015396ED91FC9182EFA8
:100E100097E091838083DF91CF911F910F91FF9095
:100E2000EF900895DC015396ED91FC9182EF97E0ED
:100E30009183808308952A9A08952A9808958EBDF3
:100E400000000DB407FEFDCF8EB50895EF92FF921E
:100E50000F931F93CF93DF93EC017B018A010E94D4
:100E60001D078D2F0E941F078C2F0E941F07812FA7
:100E70008F770E941F07802F0E941F07E701E00E57
:100E8000F11ECE15DF0529F080E00E941F0789932F
:100E9000F8CF0E941B07C801DF91CF911F910F91DE
:100EA000FF90EF900895EF92FF920F931F93CF93CF
:100EB000DF93EC017B018A010E941D078D2F0E94A8
:100EC0001F078C2F0E941F07812F80680E941F0719
:100ED000802F0E941F07E701E00EF11ECE15DF05EF
:100EE00021F089910E941F07F9CF0E941B07C801BA
:100EF000DF91CF911F910F91FF90EF9008951F9375
:100F0000CF93DF93D82F192FC62F0E941D07812F53
:100F10000E941F078D2F0E941F0780E80E941F0755
:100F200081E00E941F078C2F0E941F070E941B0751
:100F300081E0DF91CF911F910895CF93DF93C82F68
:100F4000D0E0C05CDF4FDC2FCC27C60FD71F0E943C
:100F50001D078D2F0E941F078C2F0E941F0780E006
:100F60000E941F0781E00E941F0780E00E941F0768
:100F7000C82F0E941B078C2FDF91CF9108951F93DC
:100F8000CF93DF93182F66E270E00E949D07C82F71
:100F9000D0E0DC2FCC2767E270E0812F0E949D0714
:100FA0008C0F9D2F911DDF91CF911F9108959B0173
:100FB00090E0805C9F4F982F8827642F820F931FAB
:100FC0000C947F07CF93C82F462F61E070E00E94FA
:100FD000D70761E070E08C2F0E949D078111F9CF47
:100FE000CF910895AF92BF92CF92DF92EF92FF928E
:100FF0000F931F93CF93DF93FC01848181508483EF
:101000008823F1F0DB0116968D919C9197700C96D8
:1010100022813381820F931F938382830388F48913
:10102000E02D85EB92E091838083DF91CF911F913A
:101030000F91FF90EF90DF90CF90BF90AF90089509
:101040006F01A080B1800581168164E270E080E0CC
:101050000E949D07C82FD0E0DC2FCC2765E270E00E
:1010600080E00E949D07C80FD11D9E0137708091BE
:10107000630990916409820F931FA801420F531FC7
:101080004130584078F160E078E07B01E21AF30AE1
:10109000A701B5010E945307A8014E195F09B501C8
:1010A0006E0D7F1D80916309909164090E94530722
:1010B000C00FD11F4D2F64E270E080E00E94D7077F
:1010C0004C2F65E270E080E00E94D70761E270E09B
:1010D00080E00E94E207D6015396ED91FC911182C7
:1010E0001082A3CFA801B501E1CFCF93DF936CE2CB
:1010F00071E080E090E00E948302CFB7F894809185
:101100000003811127C0E8EBF0E08491EAE9F0E008
:101110009491E82FF0E0EE0FFF1FE859FF4FA591E3
:10112000B491EC91E92321F461E08AE00E94DE00B1
:1011300061E08AE00E940C018CB580618CBD8CB5A9
:1011400080648CBD61E08DE00E940C0161E08BE069
:101150000E940C01809100038F5F80930003CFBF3A
:10116000229A60E890E080E00E947F07CFE1D0E41F
:1011700062E0CE010E947F0762E0CE0101970E94EB
:101180007F07D395CF3188E4D80791F780E090E8C6
:10119000909364098093630980E090EC90937409C4
:1011A0008093730980E098E89093660980936509BD
:1011B00080E098EC909376098093750980E090E93F
:1011C000909368098093670980E090ED9093780987
:1011D0008093770980E098E990936A098093690980
:1011E00080E098ED90937A098093790980E090EA05
:1011F00090936C0980936B0980E090EE90937C094A
:1012000080937B0980E098EA90936E0980936D0942
:1012100080E098EE90937E0980937D0980E090EBCA
:101220009093700980936F0980E090EF909380090C
:1012300080937F0980E098EB909372098093710905
:1012400080E098EF909382098093810944E070E0F8
:1012500060E080E00E94D70761E070E080E00E94DB
:10126000E20790E080E0DF91CF910895E0910103E3
:10127000F0910203309751F0AC014A5F5F4F665026
:10128000710980910001909101010995109202036A
:10129000109201038FEF9FEF909301018093000163
:1012A0000895FB0101900020E9F73197AF01461B3B
:1012B000570BDC01ED91FC910280F381E02D099444
:1012C0008F929F92AF92BF92EF92FF920F931F93D4
:1012D000CF93DF93CDB7DEB7A1970FB6F894DEBFFB
:1012E0000FBECDBF7C01FA01CB0119A2223008F458
:1012F0002AE08E010F5D1F4F822E912CB12CA12C64
:10130000BF01A50194010E946116F901CA016A306A
:101310000CF5605DD8016E938D01232B242B252BBA
:1013200079F790E080E0109721F0BD01C7010E949D
:101330005109A1960FB6F894DEBF0FBECDBFDF9165
:10134000CF911F910F91FF90EF90BF90AF909F9022
:101350008F900895695CDECFCF92DF92EF92FF927B
:10136000CF93DF936B017C016DE283E899E00E94EB
:10137000A803EC0144275527BA014C195D096E09F1
:101380007F092AE083E899E00E9460098C0F9D1F85
:10139000DF91CF91FF90EF90DF90CF900895AC0157
:1013A000990F660B770B77FF04C0CB01BA010C9441
:1013B000AC092AE083E899E00C9460098F929F922F
:1013C000AF92BF92CF92DF92EF92FF920F931F9353
:1013D000CF93DF937C01EB016C0182E0C80ED11C3E
:1013E0004701E5E08E0E911C10E000E0F60141910E
:1013F0006F0150E070E060E02AE0CE010E946009D9
:101400005C01E881F9810190F081E02D6EE2CE016E
:1014100009958A0D9B1D080F191FC814D90431F7AF
:10142000F701458150E070E060E02AE0CE010E94C3
:101430006009800F911FDF91CF911F910F91FF9055
:10144000EF90DF90CF90BF90AF909F908F900895D6
:10145000BC0183E899E00C945109CF93DF93BC0160
:1014600083E899E00E945109EC016BE171E083E8A7
:1014700099E00E9451098C0F9D1FDF91CF91089533
:10148000CF93DF93AC01990F660B770B77FF10C0FA
:10149000CB01BA010E94AC09EC016BE171E083E879
:1014A00099E00E9451098C0F9D1FDF91CF91089503
:1014B0002AE083E899E00E946009EECF8F929F9224
:1014C000AF92BF92EF92FF920F931F93CF93DF9350
:1014D000653AA9E07A0764F0DF91CF911F910F91EF
:1014E000FF90EF90BF90AF909F908F900C94150459
:1014F00077FD0AC0CB019850499780F598E0461BCC
:10150000570B2115310559F4DF91CF911F910F91A0
:10151000FF90EF90BF90AF909F908F9008956115CE
:10152000B8E07B07B1F06830760771F7EBEAF4E0DA
:10153000858183FF11C01582DA01A60FB71F88E0ED
:1015400001900D928A95E1F728503109685F7F4F2D
:10155000D8CFEFE9F4E0ECCF9583EECF260F371F1D
:1015600090E080E014E0C2E005E0E1E1FE2EF2E26E
:10157000EF2E6217730744F66230E5E07E0709F448
:1015800052C10CF07EC06115B1E07B0709F429C19E
:10159000DCF56430710509F417C1CCF461307105D4
:1015A00009F40AC144F4A091170361157105E9F02B
:1015B000E1E0F0E02AC16230710509F400C1633056
:1015C0007105B1F7FA01E80FF91FE082F1CF683039
:1015D000710509F4FEC074F46530710509F4F4C0B6
:1015E000A09119036730710519F7FA01E80FF91F87
:1015F000A083DECF6031710509F4F0C0A0911E0315
:101600006231710591F3D4CF6033E1E07E0709F4D4
:10161000F1C0C4F46330B1E07B0709F4E5C034F4F1
:10162000A09120036130760701F3C2CF6031A1E0C1
:101630007A0709F4DCC0A09122036032B1E07B0795
:10164000A1F2B6CF6115D2E07D0709F4E6C064F4DB
:101650006433A1E07A0709F4DDC0A091240360346B
:10166000B1E07B0711F2A4CF6115D3E07D0709F447
:10167000D7C0A09127036115E5E07E0709F4B5CF37
:1016800097CF6831A9E07A0709F4D8C00CF04BC0B5
:101690006031D8E07D07BCF46D30E8E07E070CF0E7
:1016A000C8C06830A5E07A0709F4C0C06530B8E06A
:1016B0007B0709F4BEC0A09129036430D5E07D0703
:1016C00009F493CF75CF6830E9E07E0751F0CCF490
:1016D0006115B9E07B0729F06430D9E07D0709F096
:1016E00067CFFB01F950EC7FE75BFC4FD4E0DA01F8
:1016F000A80FB91F01900D92DA95E1F7E4E0F0E050
:1017000084C06C30E9E07E0761F36031A9E07A07BC
:1017100009F04ECF8090310390903203A0903303B4
:10172000B090340393C06433B9E07B0709F49FC0E1
:10173000ECF46832E9E07E0709F490C02CF46032E2
:10174000B9E07B0739F334CF6C32D9E07D0729F05B
:101750006033E9E07E0709F02BCF8090350390904D
:101760003603A0903703B090380370C06039A9E009
:101770007A0709F488C06CF46038D9E07D0709F471
:101780007FC0A0912C036138E9E07E0709F42DCFDA
:101790000FCF603AA9E07A0709F47EC0643AB9E055
:1017A0007B0709F005CF8090410390904203A09001
:1017B0004303B09044034AC0A091180316CFFA0126
:1017C000E80FF91FF082F4CEFA01E80FF91FC08389
:1017D000EFCEFA01E80FF91F0083EACEA0911D03B6
:1017E00004CFA0911F0301CFA0912103FECEA091B1
:1017F0001C03FBCEA0911A03B0911B03FA01E80F62
:10180000F91FB183A083E2E0F0E06E0F7F1F8E0F1F
:101810009F1FAFCEA0912303E8CEA0912503E5CE74
:10182000A0912603E2CEA0912803DFCEA0912A0347
:10183000DCCEFA01E80FF91F1082BACE8090450382
:1018400090904603A0904703B0904803FA01E80F38
:10185000F91F80829182A282B38250CF80902D03A3
:1018600090902E03A0902F03B0903003EFCFFA0199
:10187000E80FF91FDF01D12F1D92DA95E9F73ECF6E
:10188000A0912B03B2CE8090390390903A03A090A0
:101890003B03B0903C03DACF80903D0390903E0331
:1018A000A0903F03B0904003D1CF0F931F93CF93ED
:1018B000DF938C01EB01AB01465F5F4F6C817D8153
:1018C0002E813F813770E0911D038A819B81E8174B
:1018D0001906E1F0623085E07807A1F4B901CA0188
:1018E0000E943609CE010E943406D8015396ED912C
:1018F000FC9182EF97E091838083DF91CF911F91DC
:101900000F910895C8010E948F04ECCFC8010E9476
:101910005E0AE8CFCF92DF92EF92FF920F931F9370
:10192000CF93DF938C01FB0120911D038281938172
:1019300028171906E9F4C681D781D7702097C1F01E
:101940007B018AE0E80EF11CC480D580CB010E94A7
:1019500034069E01A701B601C8010E945E0AA2E0FA
:10196000CA16A5E0DA0621F4BE01C7010E943609B5
:10197000D8015396ED91FC9182EF97E0918380839B
:10198000DF91CF911F910F91FF90EF90DF90CF905B
:1019900008950F931F93CF93DF938C01EB012E815A
:1019A0003F813770AB01465F5F4F6C817D810E9444
:1019B0005E0ACE010E9434068A819B8101969B8338
:1019C0008A83D8015396ED91FC9182EF97E0918341
:1019D0008083DF91CF911F910F9108950F931F93F3
:1019E000CF93DF938C01EB01AB01465F5F4F2E81FC
:1019F0003F8137706C817D818A819B81892BC1F009
:101A0000C8010E948F04CE010E9434068A819B8106
:101A100001969B838A83D8015396ED91FC9182EFC6
:101A200097E091838083DF91CF911F910F9108956B
:101A3000C8010E945E0AE7CF8F929F92AF92BF9239
:101A4000CF92DF92EF92FF920F931F93CF93DF938A
:101A50006C01EB01EA80FB8080911D038E151F0451
:101A6000F1F40E811F81177001151105C1F05B01A2
:101A70008AE0A80EB11C8C809D80CB010E943406A8
:101A80009801A501B401C6010E945E0AA2E08A166F
:101A9000A5E09A0621F4B801C5010E943609BFEFFE
:101AA000EB1AFB0AFB82EA82D6015396ED91FC9178
:101AB00082EF97E091838083DF91CF911F910F9107
:101AC000FF90EF90DF90CF90BF90AF909F908F905E
:101AD00008959A01880F991FAC01460F571F473C84
:101AE000524038F4875A9C4FAB01BC01C9010C9499
:101AF000891608950F931F93CF93DF93FC01EB0199
:101B00001E829F819E7090689F83988590789660D2
:101B100098871B861A869D81907F93609D8388E0BD
:101B20008F8785E090E0998B888B88E090E09B8B95
:101B30008A8B8FEF9FE09D8B8C8B858996898C8714
:101B40009D8727892E878B010A5E1F4F1F922F9337
:101B50009F938F938EE191E09F938F931F930F93A9
:101B60000E94C416F80101900020E9F7CF01801B04
:101B7000910B4096998388838DB79EB708960FB6D0
:101B8000F8949EBF0FBE8DBFDF91CF911F910F9133
:101B900008950F931F93CF93DF93FC01EB019D8179
:101BA000907F93609D831E8280E88F8319861B86B9
:101BB0001A869885907894609887958986899C87FD
:101BC0008D8725E030E03F872E8724E0288B27E0B3
:101BD000298B8B010E5E1F4F8F939F9382E391E0C1
:101BE0009F938F931F930F930E94C416F801019047
:101BF0000020E9F7CF01801B910B0C969983888315
:101C00000F900F900F900F900F900F90DF91CF914A
:101C10001F910F9108954F925F926F927F928F92D2
:101C20009F92AF92BF92CF92DF92EF92FF920F936B
:101C30001F93CF93DF93CDB7DEB77C014B014DB639
:101C40005EB620911D03DB0112968D919C91139736
:101C50002817190609F03FC016960D911C911770B0
:101C600001151105C1F16B01BAE0CB0ED11CFB01CE
:101C7000A480B580CB010E943406C4010E943406C2
:101C8000C4010E9434066DB67EB68DB79EB7801B28
:101C9000910B0FB6F8949EBF0FBE8DBFADB7BEB708
:101CA00011964D019801AD01B501C7010E945E0A70
:101CB000B2E0AB16B5E0BB0661F5B801C6010E9403
:101CC0003609A801B401C6010E9489160FB6F8941E
:101CD0007EBE0FBE6DBED7015396ED91FC9182EF93
:101CE00097E0918380830FB6F8945EBE0FBE4DBE21
:101CF000DF91CF911F910F91FF90EF90DF90CF90E8
:101D0000BF90AF909F908F907F906F905F904F901B
:101D100008959801A601B501C7010E948F04D1CF93
:101D20004F925F926F927F928F929F92AF92BF92EB
:101D3000CF92DF92EF92FF920F931F93CF93DF9397
:101D4000CDB7DEB76C018B014DB65EB65B018AE0A4
:101D5000A80EB11CDB011696ED90FC90B7E0FB22BB
:101D6000EDB7FEB7EE19FF090FB6F894FEBF0FBE30
:101D7000EDBF8DB79EB701963C01DB0112968D91A8
:101D80009C911397019613969C938E931297149699
:101D90008D909C909701A301B401C6010E945E0A38
:101DA0009701A501B401C6010E948F04A701B301E8
:101DB000C5010E948916C8010E943406C8010E940C
:101DC0003406C8010E943406D6015396ED91FC9169
:101DD00082EF97E0918380830FB6F8945EBE0FBECA
:101DE0004DBEDF91CF911F910F91FF90EF90DF904B
:101DF000CF90BF90AF909F908F907F906F905F90AB
:101E00004F9008954F925F926F927F928F929F9220
:101E1000AF92BF92CF92DF92EF92FF920F931F93F8
:101E2000CF93DF93CDB7DEB75C018B014DB65EB6C5
:101E3000DB0112968D919C911397892B99F514963D
:101E40008D909C9015971696ED90FC90B7E0FB2234
:101E5000EDB7FEB7EE19FF090FB6F894FEBF0FBE3F
:101E6000EDBF8DB79EB701963C019701AC01B4015F
:101E7000C5010E945E0A970168019AE0C90ED11C53
:101E8000A601B401C5010E948F04A701B301C601D8
:101E90000E9489160FB6F8945EBE0FBE4DBEC801F3
:101EA0000E943406D80112968D919C911397019649
:101EB00013969C938E931297D5015396ED91FC91B6
:101EC00082EF97E0918380830FB6F8945EBE0FBED9
:101ED0004DBEDF91CF911F910F91FF90EF90DF905A
:101EE000CF90BF90AF909F908F907F906F905F90BA
:101EF0004F9008954F925F926F927F928F929F9230
:101F0000AF92BF92CF92DF92EF92FF920F931F9307
:101F1000CF93DF93CDB7DEB75C018B014DB65EB6D4
:101F2000DB0112968D919C911397892BC9F514961C
:101F30008D909C9015971696ED90FC90B7E0FB2243
:101F4000EDB7FEB7EE19FF090FB6F894FEBF0FBE4E
:101F5000EDBF8DB79EB701963C019701AC01B4016E
:101F6000C5010E945E0A970168019AE0C90ED11C62
:101F7000A601B401C5010E948F04A701B301C601E7
:101F80000E9489160FB6F8945EBE0FBE4DBEC80102
:101F90000E943406C8010E943406C8010E9434061B
:101FA000D80112968D919C911397019613969C934C
:101FB0008E931297D5015396ED91FC9182EF97E0A5
:101FC000918380830FB6F8945EBE0FBE4DBEDF9145
:101FD000CF911F910F91FF90EF90DF90CF90BF9026
:101FE000AF909F908F907F906F905F904F900895EB
:101FF0001F920F920FB60F9211242F933F938F933E
:102000009F93AF93BF938091A6089091A708A0914A
:10201000A808B091A9083091A50823E0230F2D3717
:1020200058F50196A11DB11D2093A5088093A6081F
:102030009093A708A093A808B093A9088091AA0834
:102040009091AB08A091AC08B091AD080196A11D8C
:10205000B11D8093AA089093AB08A093AC08B093ED
:10206000AD08BF91AF919F918F913F912F910F90AC
:102070000FBE0F901F90189526E8230F0296A11D02
:10208000B11DD2CF1F920F920FB60F9211242F9332
:102090003F934F935F936F937F938F939F93AF93F0
:1020A000BF93EF93FF9383E899E00E948603FF912B
:1020B000EF91BF91AF919F918F917F916F915F91C0
:1020C0004F913F912F910F900FBE0F901F90189539
:1020D0001F920F920FB60F9211242F938F939F93FD
:1020E000EF93FF93E0919309F09194098081E0913F
:1020F0009909F0919A0982FD1BC0908180919C09F9
:102100008F5F8F7320919D09821741F0E0919C09A8
:10211000F0E0ED57F64F958F80939C09FF91EF917A
:102120009F918F912F910F900FBE0F901F90189538
:102130008081F4CF1F920F920FB60F9211242F932C
:102140003F934F936F937F938F939F93AF93BF93DF
:10215000EF93FF93809102018F5F809302018111C1
:1021600038C0EFEAF8E047818581411103C09085CE
:102170009923E9F090E03681232F30E0BC01621B07
:10218000730B161617064CF4442389F0240F311DE7
:102190002817390764F4C9010AC0672B41F040854C
:1021A000442329F0241B310982179307A4F3868363
:1021B0008681882349F09181A281B3818481911124
:1021C00031C09C91892B8C93399689E0E336F807CE
:1021D00051F6EFEAF8E0808187FD0FC0809102019F
:1021E000968198130AC0A281B38184819181911153
:1021F0001DC09C91809589238C93399689E0E336A4
:10220000F80749F7FF91EF91BF91AF919F918F919F
:102210007F916F914F913F912F910F900FBE0F9033
:102220001F9018959C9180958923CDCF9C91892BE7
:10223000E3CFE3E8F9E01382128288EE93E0A0E0B6
:10224000B0E084839583A683B78387E091E0918390
:10225000808385EC90E09587848784EC90E0978775
:10226000868780EC90E0918B808B81EC90E0938B63
:10227000828B82EC90E0958B848B86EC90E0978B40
:10228000868B118E128E138E148EE8E2FAE089E1AD
:1022900091E0918380831282138214821582E0E29E
:1022A000FAE0918380831282138214821582EEE217
:1022B000FAE0918380831282138214821582E4E310
:1022C000FAE0918380831282138214821582EAE3FA
:1022D000FAE0918380831282138214821582E0E4F3
:1022E000FAE0918380831282138214821582E6E4DD
:1022F000FAE0918380831282138214821582ECE4C7
:10230000FAE0918380831282138214821582E2E5BF
:10231000FAE09183808312821382148215820895D9
:10232000789484B5826084BD84B5816084BD85B5B0
:10233000826085BD85B5816085BD80916E008160BC
:1023400080936E0010928100809181008260809362
:102350008100809181008160809381008091800064
:102360008160809380008091B10084608093B1008F
:102370008091B00081608093B00080917A00846089
:1023800080937A0080917A00826080937A008091B5
:102390007A00816080937A0080917A0080688093CF
:1023A0007A001092C100E0919309F0919409C2E083
:1023B000C083E0918F09F09190091082E09191091A
:1023C000F09192098FEC808310929B09E09197091C
:1023D000F091980986E08083E0919509F091960943
:1023E000808180618083E0919509F09196098081D8
:1023F00088608083E0919509F091960980818068DA
:102400008083E0919509F091960980818F7D80838A
:1024100087E491E00E942D0A61E081E10E940C01B5
:1024200060E080E00E940C0160E085E00E940C0109
:1024300060E082E10E940C0160E083E10E940C01F7
:1024400081E087BBC093B100C093B00082E8809365
:10245000B300C0937000CFEAD8E083E699E0FE01B4
:102460002FEF2083118213821282178210863996F1
:102470008E179F07B1F71092AE0860E087E00E94C8
:102480003D0190E080E02881273009F0F4C229E086
:10249000289FF001299FF00D1124E155F74F84E0AA
:1024A00087838087109295081092940883E093E0C8
:1024B00090938D0880938C0821E030E030938B0856
:1024C00020938A0890938F0880938E080E94750845
:1024D00082E090E090931B0380931A03C0918A08D6
:1024E000D0918B08E0918E08F0918F0860918C0854
:1024F00070918D082091190380E091E01C161D0653
:102500000CF0C0C240E151E0E617F70711F040E1DE
:1025100050E0CA019260322F2360C230D1050CF422
:10252000B1C2DA01A062B260E617F70709F4AEC2E1
:10253000CD019860232F2F60C330D1050CF4A3C2C6
:10254000AD0140645860E617F70709F4A3C2CA0159
:102550009062232F2F6324970CF496C2CA018068DF
:102560009062E617F70719F4CA01806890669068D0
:102570002FEF2093190380931C03E9E5F3E080E833
:10258000DF011D928A95E9F78EEE91E0A0E0B0E0C0
:102590008093690390936A03A0936B03B0936C03D9
:1025A0008EE090E0A0E0B0E080936D0390936E0326
:1025B000A0936F03B093700382E190E0A0E0B0E0DD
:1025C0008093710390937203A0937303B093740389
:1025D00085E490E0A0E0B0E08093750390937603EB
:1025E000A0937703B093780384EA99E090938203F1
:1025F000809381038EE190E0909384038093830322
:1026000022EC39E03093860320938503909388036E
:102610008093870370EEE72E79E0F72EF0928A031D
:10262000E092890390938C0380938B03EEEFCE2E80
:10263000E9E0DE2ED0928E03C0928D03909390033A
:1026400080938F0304E010E01093920300939103B2
:102650008AE490E09093DC038093DB038AE080932C
:10266000DD038093D9038091DA0380788093DA03C5
:10267000C0E1C093DE036EE571E08FED93E00E9450
:102680009216DDE0D093EF036DE671E080EF93E00A
:102690000E949216D093FD0369E771E08EEF93E0FC
:1026A0000E9492168BE180930B0465E871E08CE048
:1026B00094E00E949216C09327046FE971E088E2CB
:1026C00094E00E9492168FE0809338046EEA71E0E5
:1026D00089E394E00E949216D9E0D09348046CEB11
:1026E00071E089E494E00E949216C8E0C09352041D
:1026F00064EC71E083E594E00E949216C0935B0461
:102700006BEC71E08CE594E00E949216D093640427
:1027100062ED71E085E694E00E94921621E030E0DF
:10272000309398042093970488E2809395048091D5
:10273000960480788093960481E08093990472E0F7
:1027400070939A0410939E0400939D0459E2509351
:102750009B0490919C04907890939C04E0E8F0E0B6
:10276000F093A204E093A10442E34093A304C09336
:10277000A4048093A504D092A004C0929F0463E0B7
:102780006093A6041093AA040093A9045093A7048D
:102790009091A80490789093A804F093AE04E093ED
:1027A000AD04C093B0048093B10454E05093B204DC
:1027B00096E39093AF04F092AC04E092AB04E0E1B6
:1027C000F0E0F0937404E09373049EE1909371043D
:1027D00090917204907890937204E9E7F4E09CE1A0
:1027E000DF011D929A95E9F7809375047093760442
:1027F00060937704509378048FE380937A0484E69F
:1028000090E0909382048093810430938604209317
:10281000850410921E0610921D068FEF80931B06F2
:1028200080911C068F67806880931C064093670523
:102830008091680580788093680588E590E09093A2
:102840006A058093690585E180936D051092720594
:102850001092710585E08093700510926F051092BB
:102860006E0580E096E190936C0580936B05E3E73D
:10287000F5E080E098E020E036E147E095831482BF
:1028800017821682318320834383828338968F5F39
:102890008431A1F740E24093180610921706109277
:1028A0001A0610921906309314062093130690937B
:1028B00016068093150683E38093B3048091B404D5
:1028C00080788093B40488E590E09093B604809378
:1028D000B50485E18093B9041092BE041092BD0442
:1028E00086E08093BC041092BB0481E08093BA041C
:1028F00080E09AE19093B8048093B704EFEBF4E0A2
:1029000080E048E020E03AE199E0458314821782B4
:102910001682318320839383828338968F5F84313C
:10292000A1F790E2909364051092630510926605FA
:10293000109265053093600520935F059AE09093AF
:102940006205809361058FE196E0909395088093EE
:10295000940810928408109283081092850825EB41
:10296000622E22E0722EE12C38E0F32E40E0442E5D
:1029700040E0542E53E2C52E56E0D52E63E3A62E3A
:1029800066E0B62E8091940890919508892B09F401
:1029900013C1D0E0C0E080E00E94BF078C01892B0A
:1029A00021F080E00E94BF07EC010C171D0799F78A
:1029B0008AED91E0101611060CF04FC068E270E04D
:1029C00080E00E949D07C82FD0E0DC2FCC2769E271
:1029D00070E080E00E949D07C80FD11D9E013770F6
:1029E0008091730990917409820F931FA801420F7F
:1029F000531F4130584008F451C04701821A930ACE
:102A0000A40161E276E00E942607A801481959094D
:102A1000B4016F5D794F80917309909174090E94A0
:102A20002607C00FD11F4D2F68E270E080E00E94A2
:102A3000D7074C2F69E270E080E00E94D70760E47E
:102A400070E080E00E94E20780912F0690913006AE
:102A50008838944A39F18FED91E00E942D0A411493
:102A6000510409F48FCF0E947203882309F48ACF9E
:102A70000E94000087CF019629968431910509F0C4
:102A800002CD10CD94609061906473CDDA01A062A4
:102A9000B6604ECDAD014064586159CDA80161E2E8
:102AA00076E0BDCFD0928208C09281080250110911
:102AB0001093870800938608B0928408A092830838
:102AC00080913106909132069770E3E3F6E050E092
:102AD00040E0181619062CF1892B09F040E04093CC
:102AE0008508E0919408F091950871826082E091E8
:102AF0003306E15084E992E0EE3008F5F0E0ED575E
:102B0000FA4E0C9483169D15AD15B015B315B61578
:102B1000B915BC15BF15C215C515C815CB15CE15F1
:102B2000D115268137813770245F3F4F821B930B6D
:102B3000E20FF31F4F5F5F4FCCCF84EE91E00E9416
:102B40009916E0919408F09195080190F081E02D9C
:102B5000309751F585EA92E080CF81EF91E0EFCF99
:102B60008EEF91E0ECCF8BE092E0E9CF88E192E04C
:102B7000E6CF85E292E0E3CF82E392E0E0CF8EE31E
:102B800092E0DDCF8AE492E0DACF86E592E0D7CF1B
:102B900082E692E0D4CF8EE692E0D1CF8AE792E04F
:102BA000CECF87E892E0CBCF609183087091840804
:102BB00081E898E00995C5CF61E081E10E94DE00DF
:102BC00064E670E080E090E00E94830260E081E1D2
:102BD0000E94DE0064E670E080E090E00E948302E4
:102BE00080E00E94B5009093800880937F0885E084
:102BF0000E94B50090937E0880937D0882E10E9438
:102C0000930190937C0880937B0883E10E94930159
:102C100090937A08809379088AEA92E00E94280AC1
:102C200080917F0890918008019709F044C08CEB57
:102C300092E00E94280A85EC92E00E94280A89EC22
:102C400092E00E94280A80917D0890917E08019769
:102C5000A9F58CEB92E00E94280A85EC92E00E9494
:102C6000280A8BED92E00E94280A80917B089091BF
:102C70007C080E94CF0985EC92E00E94280A8DEE24
:102C800092E00E94280A8091790890917A080E9427
:102C9000CF096BE171E083E899E00E9451096091EE
:102CA0007B0870917C08759567957595679587E0A9
:102CB0000E943D01D4CE81EC92E0BBCF81EC92E04A
:102CC000CACFA1E21A2EAA1BBB1BFD010DC0AA1F71
:102CD000BB1FEE1FFF1FA217B307E407F50720F085
:102CE000A21BB30BE40BF50B661F771F881F991F00
:102CF0001A9469F760957095809590959B01AC0149
:102D0000BD01CF010895EE0FFF1F0590F491E02D56
:102D10000994FB01DC0102C001900D92415050402A
:102D2000D8F70895FB01DC0101900D920020E1F736
:102D300008950F931F93CF93DF93E0915A0AF09178
:102D40005B0A2381EC0110E000E021FD08C00FEFD9
:102D50001FEF14C00995892B11F00FEF1FEF899118
:102D600060915A0A70915B0ADB011896ED91FC9113
:102D70008111F0CF8AE00995892B49F7C801DF91CD
:102D8000CF911F910F910895AEE0B0E0EAECF6E12B
:102D90000C9473190D891E8986E08C831A8309832C
:102DA0008FEF9FE79E838D83AE01475E5F4F6F89F4
:102DB000788DCE0101960E94E7162F813885020F8B
:102DC000131FF80110822E96E4E00C948F19ABE0EB
:102DD000B0E0EDEEF6E10C9465197C013B018A014F
:102DE000FC0117821682838181FFC8C1CE01019642
:102DF0005C01F7019381F30193FD859193FF81912C
:102E00003F01882309F453C1853239F493FD85913C
:102E100093FF81913F01853229F4B70190E00E9430
:102E2000D718E7CF912C212C312CFFE1F31538F086
:102E30008B3211F190F4803209F1833229F137FCA1
:102E40003CC020ED280F2A3050F536FE20C08AE025
:102E5000989E200D1124922E06C08D3291F0803361
:102E600071F7689430F8F30193FD859193FF819198
:102E70003F018111DACF21C0689431F8689432F8AB
:102E8000F2CF689433F8EFCF689434F8ECCFEAE0EF
:102E90002E9E200D1124222E689435F8E4CF8E3218
:102EA00029F436FC04C1689436F8DDCF8C3619F469
:102EB000689437F8D8CF8836B1F2982F9F7D955413
:102EC0009330E0F08336A1F18337C1F1833509F007
:102ED00063C02801F2E04F0E511CF801C080D18080
:102EE000692D70E036FC02C06FEF7FEFC6010E94D3
:102EF000C1184C01689437F882010AC00C5F1F4F5B
:102F0000FFE3F98388248394912C6501E89437F8D2
:102F100033FE2DC0522C8114910471F5552009F413
:102F200068CFB70180E290E00E94D7185A94F6CF9C
:102F3000F801808189830E5F1F4FE4CF2801F2E002
:102F40004F0E511CF801C080D180692D70E036FC15
:102F500002C06FEF7FEFC6010E94CC184C018201C6
:102F6000D5CFB70180E290E00E94D7182A942814A8
:102F7000190409F0B0F7CECFF60137FC859137FE82
:102F800081916F01B70190E00E94D71851105A94B7
:102F9000F1E08F1A9108BFCF843619F0893609F015
:102FA00077C0F80137FE6BC06081718182819381A7
:102FB0000C5F1F4FF32DFF763F2E97FF09C09095B2
:102FC0008095709561957F4F8F4F9F4F689437F82C
:102FD0002AE030E0A5010E940719C82ECA188C2CDF
:102FE000432C36FE0CC0E89440F8C91440F434FE7B
:102FF00005C032FC03C0F32DFE7E4F2E892C44FE0B
:1030000095C0FE01EC0DF11D8081803309F087C071
:10301000242D297E422E842D8870582E43FC95C085
:1030200040FE8FC09C2C821418F42C0C922C981803
:1030300044FE91C0B70180E390E00E94D71842FEA1
:1030400009C088E790E041FE02C088E590E0B70142
:103050000E94D718C91408F48AC0CA94D12C9FEFD3
:10306000C91AD90ACA0CDB1CF60182916F01B7019B
:1030700090E00E94D718AC14BD04B1F74FCF608127
:103080007181072E000C880B990B0E5F1F4F92CF9A
:10309000D32CE894D4F82AE030E0853739F1232D99
:1030A000297FD22E8F3601F148F48835A9F0F70137
:1030B000868197812B96E2E10C948119803749F043
:1030C0008837A9F7D4FE02C06894D2F820E130E036
:1030D0000DC06894D4F8F6CF34FE03C0822F86600A
:1030E000D82E20E132E002C028E030E0F801D7FE1F
:1030F0000FC060817181828193810C5F1F4FA50198
:103100000E940719C82ECA183D2CE89437F867CFDB
:103110006081718190E080E00E5F1F4FF0CF42FC34
:1031200002C0839478CF8394839475CF842D86785E
:1031300009F471CFF6CFB70180E290E00E94D71872
:1031400083948214C0F3512C73CF522C58188214DC
:1031500008F46ECFF8CF842D867809F47BCF8BE20C
:1031600041FE80E247FC8DE2B70190E071CFB701EC
:1031700080E390E00E94D7189A946CCF8FEF9FEF76
:1031800099CFFC010590615070400110D8F78095EF
:1031900090958E0F9F1F0895FC0161507040019023
:1031A0000110D8F7809590958E0F9F1F08950F936B
:1031B0001F93CF93DF93182F092FEB018B8181FD94
:1031C00009C01FEF0FEF812F902FDF91CF911F913B
:1031D0000F91089582FF14C02E813F818C819D81C3
:1031E000281739073CF4E881F981CF0101969983CA
:1031F000888310838E819F8101969F838E83E3CF86
:10320000E885F985812F0995892BA1F3DACFFA0199
:10321000AA27283051F1203181F1E8946F936E7F15
:103220006E5F7F4F8F4F9F4FAF4FB1E03ED0B4E006
:103230003CD0670F781F891F9A1FA11D680F791F47
:103240008A1F911DA11D6A0F711D811D911DA11D58
:1032500020D009F468943F912AE0269F1124301968
:10326000305D3193DEF6CF010895462F4770405D03
:103270004193B3E00FD0C9F7F6CF462F4F70405DB2
:103280004A3318F0495D31FD4052419302D0A9F70D
:10329000EACFB4E0A6959795879577956795BA9507
:1032A000C9F700976105710508959B01AC010A2ECD
:1032B00006945795479537952795BA95C9F7620FA4
:1032C000731F841F951FA01D08952F923F924F9248
:1032D0005F926F927F928F929F92AF92BF92CF92A6
:1032E000DF92EF92FF920F931F93CF93DF93CDB7AF
:1032F000DEB7CA1BDB0B0FB6F894DEBF0FBECDBF27
:1033000009942A88398848885F846E847D848C84F7
:103310009B84AA84B984C884DF80EE80FD800C8100
:103320001B81AA81B981CE0FD11D0FB6F894DEBFE3
:0C3330000FBECDBFED010895F894FFCF53
:10333C00FFFFFF00000000A80308033503F5036638
:10334C00034403580300000000DE090D0A00534437
:10335C004F20454E54525920307825783A307825F4
:10336C0058004C494E555820445249564520534418
:10337C004F20307825580041726475696E6F204576
:10338C007468657263617420736C61766500526158
:10339C007A2042656E204A6568756461004C49422A
:1033AC00495820494D414745004C49424958204F06
:1033BC00524445520041524455494E4F204F5045BE
:1033CC004E20534F555243452044524956450041D7
:1033DC00524455494E4F204F55545055540041526C
:1033EC004455494E4F20494E505554004F5554208A
:1033FC0050494E0053544154555300494E205049A6
:10340C004E00434F4D4D414E440030783131003029
:10341C007832320065635F636D645F617072640D56
:10342C000065635F636D645F617077720D00656347
:10343C005F636D645F617072770D0065635F636DD0
:10344C00645F667072640D0065635F636D645F66D4
:10345C007077720D0065635F636D645F6670727781
:10346C000D0065635F636D645F6272640D0065637C
:10347C005F636D645F6277720D0065635F636D649B
:10348C005F6272770D0065635F636D645F6C72647D
:10349C000D0065635F636D645F6C77720D0065632F
:1034AC005F636D645F6C72770D0065635F636D6461
:1034BC005F61726D770D0065635F636D645F66724B
:1034CC006D770D00756E6B6E6F776E20636F6D6D23
:1034DC00616E640D00307846460053544154555388
:1034EC0020427574746F6E20313A20004849474869
:1034FC00004C4F570020202000535441545553206A
:10350C00427574746F6E20323A20005354415455F6
:10351C005320416E616C6F675F313A200053544108
:10352C0054555320416E616C6F675F323A20000036
:00000001FF
